{
  "_format": "hh-sol-artifact-1",
  "contractName": "AssetManager",
  "sourceName": "contracts/MyContract.sol",
  "abi": [
    {
      "inputs": [
        {
          "internalType": "address",
          "name": "tokenAddress",
          "type": "address"
        }
      ],
      "stateMutability": "nonpayable",
      "type": "constructor"
    },
    {
      "inputs": [
        {
          "internalType": "address",
          "name": "owner",
          "type": "address"
        }
      ],
      "name": "OwnableInvalidOwner",
      "type": "error"
    },
    {
      "inputs": [
        {
          "internalType": "address",
          "name": "account",
          "type": "address"
        }
      ],
      "name": "OwnableUnauthorizedAccount",
      "type": "error"
    },
    {
      "anonymous": false,
      "inputs": [
        {
          "indexed": true,
          "internalType": "address",
          "name": "previousOwner",
          "type": "address"
        },
        {
          "indexed": true,
          "internalType": "address",
          "name": "newOwner",
          "type": "address"
        }
      ],
      "name": "OwnershipTransferred",
      "type": "event"
    },
    {
      "inputs": [
        {
          "internalType": "address",
          "name": "",
          "type": "address"
        }
      ],
      "name": "assetHolders",
      "outputs": [
        {
          "internalType": "uint256",
          "name": "assets",
          "type": "uint256"
        },
        {
          "internalType": "uint256",
          "name": "lastClaim",
          "type": "uint256"
        }
      ],
      "stateMutability": "view",
      "type": "function"
    },
    {
      "inputs": [],
      "name": "assetRewardRate",
      "outputs": [
        {
          "internalType": "uint256",
          "name": "",
          "type": "uint256"
        }
      ],
      "stateMutability": "view",
      "type": "function"
    },
    {
      "inputs": [],
      "name": "claimRewards",
      "outputs": [],
      "stateMutability": "nonpayable",
      "type": "function"
    },
    {
      "inputs": [
        {
          "internalType": "uint256",
          "name": "amount",
          "type": "uint256"
        }
      ],
      "name": "depositTokens",
      "outputs": [],
      "stateMutability": "nonpayable",
      "type": "function"
    },
    {
      "inputs": [],
      "name": "owner",
      "outputs": [
        {
          "internalType": "address",
          "name": "",
          "type": "address"
        }
      ],
      "stateMutability": "view",
      "type": "function"
    },
    {
      "inputs": [],
      "name": "renounceOwnership",
      "outputs": [],
      "stateMutability": "nonpayable",
      "type": "function"
    },
    {
      "inputs": [],
      "name": "rewardPool",
      "outputs": [
        {
          "internalType": "uint256",
          "name": "",
          "type": "uint256"
        }
      ],
      "stateMutability": "view",
      "type": "function"
    },
    {
      "inputs": [],
      "name": "token",
      "outputs": [
        {
          "internalType": "contract XanderToken",
          "name": "",
          "type": "address"
        }
      ],
      "stateMutability": "view",
      "type": "function"
    },
    {
      "inputs": [],
      "name": "tokenPerAsset",
      "outputs": [
        {
          "internalType": "uint256",
          "name": "",
          "type": "uint256"
        }
      ],
      "stateMutability": "view",
      "type": "function"
    },
    {
      "inputs": [
        {
          "internalType": "address",
          "name": "newOwner",
          "type": "address"
        }
      ],
      "name": "transferOwnership",
      "outputs": [],
      "stateMutability": "nonpayable",
      "type": "function"
    }
  ],
  "bytecode": "0x608060405269021e19e0c9bab240000060025567016345785d8a0000600355678ac7230489e800006004553480156200003757600080fd5b50604051620010ea380380620010ea83398181016040528101906200005d91906200025b565b33600073ffffffffffffffffffffffffffffffffffffffff168173ffffffffffffffffffffffffffffffffffffffff1603620000d35760006040517f1e4fbdf7000000000000000000000000000000000000000000000000000000008152600401620000ca91906200029e565b60405180910390fd5b620000e4816200012d60201b60201c565b5080600160006101000a81548173ffffffffffffffffffffffffffffffffffffffff021916908373ffffffffffffffffffffffffffffffffffffffff16021790555050620002bb565b60008060009054906101000a900473ffffffffffffffffffffffffffffffffffffffff169050816000806101000a81548173ffffffffffffffffffffffffffffffffffffffff021916908373ffffffffffffffffffffffffffffffffffffffff1602179055508173ffffffffffffffffffffffffffffffffffffffff168173ffffffffffffffffffffffffffffffffffffffff167f8be0079c531659141344cd1fd0a4f28419497f9722a3daafe3b4186f6b6457e060405160405180910390a35050565b600080fd5b600073ffffffffffffffffffffffffffffffffffffffff82169050919050565b60006200022382620001f6565b9050919050565b620002358162000216565b81146200024157600080fd5b50565b60008151905062000255816200022a565b92915050565b600060208284031215620002745762000273620001f1565b5b6000620002848482850162000244565b91505092915050565b620002988162000216565b82525050565b6000602082019050620002b560008301846200028d565b92915050565b610e1f80620002cb6000396000f3fe608060405234801561001057600080fd5b506004361061009e5760003560e01c8063856876791161006657806385687679146101245780638da5cb5b14610142578063dd49756e14610160578063f2fde38b1461017c578063fc0c546a146101985761009e565b8063372500ab146100a357806363e334a7146100ad57806366666aa9146100cb5780636b535d7e146100e9578063715018a61461011a575b600080fd5b6100ab6101b6565b005b6100b56103d3565b6040516100c291906107dc565b60405180910390f35b6100d36103d9565b6040516100e091906107dc565b60405180910390f35b61010360048036038101906100fe919061085a565b6103df565b604051610111929190610887565b60405180910390f35b610122610403565b005b61012c610417565b60405161013991906107dc565b60405180910390f35b61014a61041d565b60405161015791906108bf565b60405180910390f35b61017a60048036038101906101759190610906565b610446565b005b6101966004803603810190610191919061085a565b6105c4565b005b6101a061064a565b6040516101ad9190610992565b60405180910390f35b6000600560003373ffffffffffffffffffffffffffffffffffffffff1673ffffffffffffffffffffffffffffffffffffffff16815260200190815260200160002090506000816000015411610240576040517f08c379a000000000000000000000000000000000000000000000000000000000815260040161023790610a0a565b60405180910390fd5b6000620151808260010154426102569190610a59565b6102609190610abc565b9050600081116102a5576040517f08c379a000000000000000000000000000000000000000000000000000000000815260040161029c90610b5f565b60405180910390fd5b60006003548360000154836102ba9190610b7f565b6102c49190610b7f565b905060025481111561030b576040517f08c379a000000000000000000000000000000000000000000000000000000000815260040161030290610c0d565b60405180910390fd5b42836001018190555080600260008282546103269190610a59565b92505081905550600160009054906101000a900473ffffffffffffffffffffffffffffffffffffffff1673ffffffffffffffffffffffffffffffffffffffff1663a9059cbb33836040518363ffffffff1660e01b815260040161038a929190610c2d565b6020604051808303816000875af11580156103a9573d6000803e3d6000fd5b505050506040513d601f19601f820116820180604052508101906103cd9190610c8e565b50505050565b60045481565b60025481565b60056020528060005260406000206000915090508060000154908060010154905082565b61040b610670565b61041560006106f7565b565b60035481565b60008060009054906101000a900473ffffffffffffffffffffffffffffffffffffffff16905090565b6000600454826104569190610cbb565b14610496576040517f08c379a000000000000000000000000000000000000000000000000000000000815260040161048d90610d5e565b60405180910390fd5b6000600454826104a69190610abc565b9050600160009054906101000a900473ffffffffffffffffffffffffffffffffffffffff1673ffffffffffffffffffffffffffffffffffffffff166323b872dd3330856040518463ffffffff1660e01b815260040161050793929190610d7e565b6020604051808303816000875af1158015610526573d6000803e3d6000fd5b505050506040513d601f19601f8201168201806040525081019061054a9190610c8e565b506000600560003373ffffffffffffffffffffffffffffffffffffffff1673ffffffffffffffffffffffffffffffffffffffff1681526020019081526020016000209050818160000160008282546105a29190610db5565b9250508190555060008160010154036105bf574281600101819055505b505050565b6105cc610670565b600073ffffffffffffffffffffffffffffffffffffffff168173ffffffffffffffffffffffffffffffffffffffff160361063e5760006040517f1e4fbdf700000000000000000000000000000000000000000000000000000000815260040161063591906108bf565b60405180910390fd5b610647816106f7565b50565b600160009054906101000a900473ffffffffffffffffffffffffffffffffffffffff1681565b6106786107bb565b73ffffffffffffffffffffffffffffffffffffffff1661069661041d565b73ffffffffffffffffffffffffffffffffffffffff16146106f5576106b96107bb565b6040517f118cdaa70000000000000000000000000000000000000000000000000000000081526004016106ec91906108bf565b60405180910390fd5b565b60008060009054906101000a900473ffffffffffffffffffffffffffffffffffffffff169050816000806101000a81548173ffffffffffffffffffffffffffffffffffffffff021916908373ffffffffffffffffffffffffffffffffffffffff1602179055508173ffffffffffffffffffffffffffffffffffffffff168173ffffffffffffffffffffffffffffffffffffffff167f8be0079c531659141344cd1fd0a4f28419497f9722a3daafe3b4186f6b6457e060405160405180910390a35050565b600033905090565b6000819050919050565b6107d6816107c3565b82525050565b60006020820190506107f160008301846107cd565b92915050565b600080fd5b600073ffffffffffffffffffffffffffffffffffffffff82169050919050565b6000610827826107fc565b9050919050565b6108378161081c565b811461084257600080fd5b50565b6000813590506108548161082e565b92915050565b6000602082840312156108705761086f6107f7565b5b600061087e84828501610845565b91505092915050565b600060408201905061089c60008301856107cd565b6108a960208301846107cd565b9392505050565b6108b98161081c565b82525050565b60006020820190506108d460008301846108b0565b92915050565b6108e3816107c3565b81146108ee57600080fd5b50565b600081359050610900816108da565b92915050565b60006020828403121561091c5761091b6107f7565b5b600061092a848285016108f1565b91505092915050565b6000819050919050565b600061095861095361094e846107fc565b610933565b6107fc565b9050919050565b600061096a8261093d565b9050919050565b600061097c8261095f565b9050919050565b61098c81610971565b82525050565b60006020820190506109a76000830184610983565b92915050565b600082825260208201905092915050565b7f4e6f2061737365747320746f20636c61696d207265776172647320666f722e00600082015250565b60006109f4601f836109ad565b91506109ff826109be565b602082019050919050565b60006020820190508181036000830152610a23816109e7565b9050919050565b7f4e487b7100000000000000000000000000000000000000000000000000000000600052601160045260246000fd5b6000610a64826107c3565b9150610a6f836107c3565b9250828203905081811115610a8757610a86610a2a565b5b92915050565b7f4e487b7100000000000000000000000000000000000000000000000000000000600052601260045260246000fd5b6000610ac7826107c3565b9150610ad2836107c3565b925082610ae257610ae1610a8d565b5b828204905092915050565b7f596f75206d7573742077616974206174206c65617374206f6e6520646179207460008201527f6f20636c61696d20726577617264732e00000000000000000000000000000000602082015250565b6000610b496030836109ad565b9150610b5482610aed565b604082019050919050565b60006020820190508181036000830152610b7881610b3c565b9050919050565b6000610b8a826107c3565b9150610b95836107c3565b9250828202610ba3816107c3565b91508282048414831517610bba57610bb9610a2a565b5b5092915050565b7f4e6f7420656e6f7567682072657761726420696e2074686520706f6f6c2e0000600082015250565b6000610bf7601e836109ad565b9150610c0282610bc1565b602082019050919050565b60006020820190508181036000830152610c2681610bea565b9050919050565b6000604082019050610c4260008301856108b0565b610c4f60208301846107cd565b9392505050565b60008115159050919050565b610c6b81610c56565b8114610c7657600080fd5b50565b600081519050610c8881610c62565b92915050565b600060208284031215610ca457610ca36107f7565b5b6000610cb284828501610c79565b91505092915050565b6000610cc6826107c3565b9150610cd1836107c3565b925082610ce157610ce0610a8d565b5b828206905092915050565b7f4465706f736974206d757374206265206d756c7469706c65206f66203130207460008201527f6f6b656e732e0000000000000000000000000000000000000000000000000000602082015250565b6000610d486026836109ad565b9150610d5382610cec565b604082019050919050565b60006020820190508181036000830152610d7781610d3b565b9050919050565b6000606082019050610d9360008301866108b0565b610da060208301856108b0565b610dad60408301846107cd565b949350505050565b6000610dc0826107c3565b9150610dcb836107c3565b9250828201905080821115610de357610de2610a2a565b5b9291505056fea264697066735822122008220a03f940ecffe75600bf857fcd7da64df3095b635184836e75a51d084bc564736f6c63430008140033",
  "linkReferences": {},
  "deployedLinkReferences": {}
}